{
  "_format": "hh3-artifact-1",
  "contractName": "AIJudgeCommitReveal",
  "sourceName": "contracts/AIJudgeCommitReveal.sol",
  "abi": [
    {
      "inputs": [],
      "name": "AlreadyFinalized",
      "type": "error"
    },
    {
      "inputs": [],
      "name": "AlreadyJudged",
      "type": "error"
    },
    {
      "inputs": [],
      "name": "AlreadyRevealed",
      "type": "error"
    },
    {
      "inputs": [],
      "name": "AlreadySubmitted",
      "type": "error"
    },
    {
      "inputs": [],
      "name": "AnswerTooLong",
      "type": "error"
    },
    {
      "inputs": [],
      "name": "BountyNotFound",
      "type": "error"
    },
    {
      "inputs": [],
      "name": "InvalidReveal",
      "type": "error"
    },
    {
      "inputs": [],
      "name": "InvalidWinner",
      "type": "error"
    },
    {
      "inputs": [],
      "name": "NoCommitment",
      "type": "error"
    },
    {
      "inputs": [],
      "name": "NoRevealedSubmissions",
      "type": "error"
    },
    {
      "inputs": [],
      "name": "NotBountyOwner",
      "type": "error"
    },
    {
      "inputs": [],
      "name": "PaymentFailed",
      "type": "error"
    },
    {
      "inputs": [],
      "name": "RevealEnded",
      "type": "error"
    },
    {
      "inputs": [],
      "name": "RevealNotStarted",
      "type": "error"
    },
    {
      "inputs": [],
      "name": "SubmissionClosed",
      "type": "error"
    },
    {
      "inputs": [],
      "name": "TooManySubmissions",
      "type": "error"
    },
    {
      "anonymous": false,
      "inputs": [
        {
          "indexed": true,
          "internalType": "uint256",
          "name": "bountyId",
          "type": "uint256"
        },
        {
          "indexed": false,
          "internalType": "bytes",
          "name": "aiReview",
          "type": "bytes"
        }
      ],
      "name": "AllAnswersJudged",
      "type": "event"
    },
    {
      "anonymous": false,
      "inputs": [
        {
          "indexed": true,
          "internalType": "uint256",
          "name": "bountyId",
          "type": "uint256"
        },
        {
          "indexed": true,
          "internalType": "address",
          "name": "submitter",
          "type": "address"
        }
      ],
      "name": "AnswerRevealed",
      "type": "event"
    },
    {
      "anonymous": false,
      "inputs": [
        {
          "indexed": true,
          "internalType": "uint256",
          "name": "bountyId",
          "type": "uint256"
        },
        {
          "indexed": true,
          "internalType": "address",
          "name": "owner",
          "type": "address"
        }
      ],
      "name": "BountyCreated",
      "type": "event"
    },
    {
      "anonymous": false,
      "inputs": [
        {
          "indexed": true,
          "internalType": "uint256",
          "name": "bountyId",
          "type": "uint256"
        },
        {
          "indexed": true,
          "internalType": "address",
          "name": "submitter",
          "type": "address"
        },
        {
          "indexed": false,
          "internalType": "bytes32",
          "name": "commitment",
          "type": "bytes32"
        }
      ],
      "name": "CommitmentSubmitted",
      "type": "event"
    },
    {
      "anonymous": false,
      "inputs": [
        {
          "indexed": true,
          "internalType": "uint256",
          "name": "bountyId",
          "type": "uint256"
        },
        {
          "indexed": true,
          "internalType": "uint256",
          "name": "winnerIndex",
          "type": "uint256"
        },
        {
          "indexed": true,
          "internalType": "address",
          "name": "winner",
          "type": "address"
        },
        {
          "indexed": false,
          "internalType": "uint256",
          "name": "reward",
          "type": "uint256"
        }
      ],
      "name": "WinnerFinalized",
      "type": "event"
    },
    {
      "inputs": [],
      "name": "MAX_ANSWER_LENGTH",
      "outputs": [
        {
          "internalType": "uint256",
          "name": "",
          "type": "uint256"
        }
      ],
      "stateMutability": "view",
      "type": "function"
    },
    {
      "inputs": [],
      "name": "MAX_SUBMISSIONS",
      "outputs": [
        {
          "internalType": "uint256",
          "name": "",
          "type": "uint256"
        }
      ],
      "stateMutability": "view",
      "type": "function"
    },
    {
      "inputs": [
        {
          "internalType": "uint256",
          "name": "",
          "type": "uint256"
        }
      ],
      "name": "bounties",
      "outputs": [
        {
          "internalType": "address",
          "name": "owner",
          "type": "address"
        },
        {
          "internalType": "string",
          "name": "title",
          "type": "string"
        },
        {
          "internalType": "string",
          "name": "rubric",
          "type": "string"
        },
        {
          "internalType": "uint256",
          "name": "reward",
          "type": "uint256"
        },
        {
          "internalType": "uint256",
          "name": "submissionDeadline",
          "type": "uint256"
        },
        {
          "internalType": "uint256",
          "name": "revealDeadline",
          "type": "uint256"
        },
        {
          "internalType": "bool",
          "name": "judged",
          "type": "bool"
        },
        {
          "internalType": "bool",
          "name": "finalized",
          "type": "bool"
        },
        {
          "internalType": "bytes",
          "name": "aiReview",
          "type": "bytes"
        },
        {
          "internalType": "uint256",
          "name": "winnerIndex",
          "type": "uint256"
        },
        {
          "internalType": "uint256",
          "name": "revealedSubmissionCount",
          "type": "uint256"
        }
      ],
      "stateMutability": "view",
      "type": "function"
    },
    {
      "inputs": [
        {
          "internalType": "string",
          "name": "answer",
          "type": "string"
        },
        {
          "internalType": "bytes32",
          "name": "salt",
          "type": "bytes32"
        },
        {
          "internalType": "uint256",
          "name": "bountyId",
          "type": "uint256"
        },
        {
          "internalType": "address",
          "name": "submitter",
          "type": "address"
        }
      ],
      "name": "computeCommitment",
      "outputs": [
        {
          "internalType": "bytes32",
          "name": "",
          "type": "bytes32"
        }
      ],
      "stateMutability": "pure",
      "type": "function"
    },
    {
      "inputs": [
        {
          "internalType": "string",
          "name": "title",
          "type": "string"
        },
        {
          "internalType": "string",
          "name": "rubric",
          "type": "string"
        },
        {
          "internalType": "uint256",
          "name": "submissionDeadline",
          "type": "uint256"
        },
        {
          "internalType": "uint256",
          "name": "revealDeadline",
          "type": "uint256"
        }
      ],
      "name": "createBounty",
      "outputs": [
        {
          "internalType": "uint256",
          "name": "bountyId",
          "type": "uint256"
        }
      ],
      "stateMutability": "payable",
      "type": "function"
    },
    {
      "inputs": [
        {
          "internalType": "uint256",
          "name": "bountyId",
          "type": "uint256"
        },
        {
          "internalType": "uint256",
          "name": "winnerIndex",
          "type": "uint256"
        }
      ],
      "name": "finalizeWinner",
      "outputs": [],
      "stateMutability": "nonpayable",
      "type": "function"
    },
    {
      "inputs": [
        {
          "internalType": "uint256",
          "name": "",
          "type": "uint256"
        },
        {
          "internalType": "address",
          "name": "",
          "type": "address"
        }
      ],
      "name": "hasCommitted",
      "outputs": [
        {
          "internalType": "bool",
          "name": "",
          "type": "bool"
        }
      ],
      "stateMutability": "view",
      "type": "function"
    },
    {
      "inputs": [
        {
          "internalType": "uint256",
          "name": "bountyId",
          "type": "uint256"
        },
        {
          "internalType": "bytes",
          "name": "llmInput",
          "type": "bytes"
        }
      ],
      "name": "judgeAll",
      "outputs": [],
      "stateMutability": "nonpayable",
      "type": "function"
    },
    {
      "inputs": [],
      "name": "nextBountyId",
      "outputs": [
        {
          "internalType": "uint256",
          "name": "",
          "type": "uint256"
        }
      ],
      "stateMutability": "view",
      "type": "function"
    },
    {
      "inputs": [
        {
          "internalType": "uint256",
          "name": "bountyId",
          "type": "uint256"
        }
      ],
      "name": "reclaimReward",
      "outputs": [],
      "stateMutability": "nonpayable",
      "type": "function"
    },
    {
      "inputs": [
        {
          "internalType": "uint256",
          "name": "bountyId",
          "type": "uint256"
        },
        {
          "internalType": "string",
          "name": "answer",
          "type": "string"
        },
        {
          "internalType": "bytes32",
          "name": "salt",
          "type": "bytes32"
        }
      ],
      "name": "revealAnswer",
      "outputs": [],
      "stateMutability": "nonpayable",
      "type": "function"
    },
    {
      "inputs": [
        {
          "internalType": "uint256",
          "name": "bountyId",
          "type": "uint256"
        },
        {
          "internalType": "bytes32",
          "name": "commitment",
          "type": "bytes32"
        }
      ],
      "name": "submitCommitment",
      "outputs": [],
      "stateMutability": "nonpayable",
      "type": "function"
    }
  ],
  "bytecode": "0x608060405260015f55348015610013575f80fd5b50611999806100215f395ff3fe6080604052600436106100a5575f3560e01c8063dc2f874411610062578063dc2f874414610197578063e29beab5146101cd578063e31202c0146101ec578063e6a3d9dc146101ff578063fd14fad41461021e578063fd3a832914610232575f80fd5b80635a7722f1146100a95780638e789683146100ca578063a99ef9f5146100f1578063cab136c41461013a578063d5198a7114610159578063d8964ee914610178575b5f80fd5b3480156100b4575f80fd5b506100c86100c3366004611146565b610247565b005b3480156100d5575f80fd5b506100de600a81565b6040519081526020015b60405180910390f35b3480156100fc575f80fd5b5061012a61010b366004611181565b600260209081525f928352604080842090915290825290205460ff1681565b60405190151581526020016100e8565b348015610145575f80fd5b506100de6101543660046111f0565b61046e565b348015610164575f80fd5b506100c8610173366004611252565b6104a9565b348015610183575f80fd5b506100c86101923660046112a1565b6106bc565b3480156101a2575f80fd5b506101b66101b13660046112e9565b6108c0565b6040516100e89b9a9998979695949392919061134d565b3480156101d8575f80fd5b506100c86101e73660046112e9565b610abc565b6100de6101fa3660046113d9565b610c95565b34801561020a575f80fd5b506100c8610219366004611146565b610e10565b348015610229575f80fd5b506100de5f5481565b34801561023d575f80fd5b506100de610bb881565b5f8281526001602052604090205482906001600160a01b031661027d576040516324ce57e760e21b815260040160405180910390fd5b5f8381526001602052604090205483906001600160a01b031633146102b557604051632935946560e11b815260040160405180910390fd5b5f848152600160205260409020600681015460ff166102e757604051632e0bff6760e11b815260040160405180910390fd5b6006810154610100900460ff16156103125760405163475a253560e01b815260040160405180910390fd5b600a8101548410610336576040516393a5f3c760e01b815260040160405180910390fd5b5f81600a01858154811061034c5761034c611451565b905f5260205f20906004020190508060020160019054906101000a900460ff16610389576040516393a5f3c760e01b815260040160405180910390fd5b60068201805461ff001916610100179055600882018590556003820180545f9182905582546040519192916001600160a01b039091169083908381818185875af1925050503d805f81146103f8576040519150601f19603f3d011682016040523d82523d5f602084013e6103fd565b606091505b505090508061041f576040516307a4ced160e51b815260040160405180910390fd5b82546040518381526001600160a01b039091169088908a907f2eb0120759ae6dd1505f3f092609ec7e75433fb2401ad648ebeb5bd4bd55e5b69060200160405180910390a45050505050505050565b5f8585858486604051602001610488959493929190611465565b60405160208183030381529060405280519060200120905095945050505050565b5f8481526001602052604090205484906001600160a01b03166104df576040516324ce57e760e21b815260040160405180910390fd5b5f858152600160205260409020600481015442101561051157604051632eac3ad160e11b815260040160405180910390fd5b8060050154421061053557604051633d59865b60e01b815260040160405180910390fd5b5f86815260026020908152604080832033845290915290205460ff1661056e57604051635b07c98960e01b815260040160405180910390fd5b610bb88411156105915760405163727c70e160e01b815260040160405180910390fd5b5f868152600360209081526040808320338452909152812054600a8301805490919081106105c1576105c1611451565b5f9182526020909120600490910201600281015490915060ff16156105f95760405163a89ac15160e01b815260040160405180910390fd5b5f868686338b604051602001610613959493929190611465565b6040516020818303038152906040528051906020012090508160010154811461064f57604051639ea6d12760e01b815260040160405180910390fd5b6003820161065e87898361152e565b5060028201805461ffff1916610101179055600983018054905f610681836115fc565b9091555050604051339089907f6f30d8f6c98d8fa219bfafa662ad220e3b7d642ea3fe8a284b9692cfcb894edb905f90a35050505050505050565b5f8381526001602052604090205483906001600160a01b03166106f2576040516324ce57e760e21b815260040160405180910390fd5b5f8481526001602052604090205484906001600160a01b0316331461072a57604051632935946560e11b815260040160405180910390fd5b5f8581526001602052604090206005810154421161075b57604051633d59865b60e01b815260040160405180910390fd5b600681015460ff161561078157604051632e0bff6760e11b815260040160405180910390fd5b6006810154610100900460ff16156107ac5760405163475a253560e01b815260040160405180910390fd5b80600901545f036107d05760405163044a2d4160e51b815260040160405180910390fd5b5f61081261080287878080601f0160208091040260200160405190810160405280939291908181526020018383808284375f9201919091525061107292505050565b90505f805f8380602001905181019061082b9190611743565b50935050925092508215819061085d5760405162461bcd60e51b81526004016108549190611800565b60405180910390fd5b5060068501805460ff191660011790556007850161087b8382611819565b50897fb51288ae628dca25614026175dc22a78631acc1a31f034c68c3fa241ca0fd05c836040516108ac9190611800565b60405180910390a250505050505050505050565b600160208190525f9182526040909120805491810180546001600160a01b03909316926108ec906114aa565b80601f0160208091040260200160405190810160405280929190818152602001828054610918906114aa565b80156109635780601f1061093a57610100808354040283529160200191610963565b820191905f5260205f20905b81548152906001019060200180831161094657829003601f168201915b505050505090806002018054610978906114aa565b80601f01602080910402602001604051908101604052809291908181526020018280546109a4906114aa565b80156109ef5780601f106109c6576101008083540402835291602001916109ef565b820191905f5260205f20905b8154815290600101906020018083116109d257829003601f168201915b50505050600383015460048401546005850154600686015460078701805496979496939550919360ff8083169461010090930416929091610a2f906114aa565b80601f0160208091040260200160405190810160405280929190818152602001828054610a5b906114aa565b8015610aa65780601f10610a7d57610100808354040283529160200191610aa6565b820191905f5260205f20905b815481529060010190602001808311610a8957829003601f168201915b505050505090806008015490806009015490508b565b5f8181526001602052604090205481906001600160a01b0316610af2576040516324ce57e760e21b815260040160405180910390fd5b5f8281526001602052604090205482906001600160a01b03163314610b2a57604051632935946560e11b815260040160405180910390fd5b5f83815260016020526040902060058101544211610b765760405162461bcd60e51b8152602060048201526009602482015268746f6f206561726c7960b81b6044820152606401610854565b600981015415610bb85760405162461bcd60e51b815260206004820152600d60248201526c1c995d99585b1cc8195e1a5cdd609a1b6044820152606401610854565b6006810154610100900460ff1615610bfe5760405162461bcd60e51b8152602060048201526009602482015268199a5b985b1a5e995960ba1b6044820152606401610854565b60068101805461ff0019166101001790556003810180545f9182905582546040519192916001600160a01b039091169083908381818185875af1925050503d805f8114610c66576040519150601f19603f3d011682016040523d82523d5f602084013e610c6b565b606091505b5050905080610c8d576040516307a4ced160e51b815260040160405180910390fd5b505050505050565b5f803411610cd75760405162461bcd60e51b815260206004820152600f60248201526e1c995dd85c99081c995c5d5a5c9959608a1b6044820152606401610854565b428311610d265760405162461bcd60e51b815260206004820152601760248201527f626164207375626d697373696f6e20646561646c696e650000000000000000006044820152606401610854565b828211610d6b5760405162461bcd60e51b81526020600482015260136024820152726261642072657665616c20646561646c696e6560681b6044820152606401610854565b5f80549080610d79836115fc565b909155505f81815260016020819052604090912080546001600160a01b031916331781559192508101610dad888a8361152e565b5060028101610dbd86888361152e565b5034600382015560048101849055600581018390555f196008820155604051339083907fa42a102b7be732c6c110f2a200de7ae4a49832e42c61c6c194cf1c94fbc5042e905f90a3509695505050505050565b5f8281526001602052604090205482906001600160a01b0316610e46576040516324ce57e760e21b815260040160405180910390fd5b5f83815260016020526040902060048101544210610e77576040516322f37d7760e21b815260040160405180910390fd5b600681015460ff1615610e9d57604051632e0bff6760e11b815260040160405180910390fd5b6006810154610100900460ff1615610ec85760405163475a253560e01b815260040160405180910390fd5b600a8181015410610eec57604051634a62ffdd60e11b815260040160405180910390fd5b5f84815260026020908152604080832033845290915290205460ff1615610f2657604051639fbfc58960e01b815260040160405180910390fd5b6040805160a08101825233815260208082018681525f83850181815260608501828152865180860190975282875260808601968752600a880180546001818101835591855295909320865160049096020180546001600160a01b03969096166001600160a01b031990961695909517855592519184019190915551600283018054925115156101000261ff00199215159290921661ffff199093169290921717905591519091906003820190610fdc9082611819565b5050505f8481526002602090815260408083203384529091529020805460ff19166001908117909155600a82015461101491906118d5565b5f85815260036020908152604080832033808552925291829020929092555185907f6459ffc8e2e6aea1e7a6161f54ca96e0b0c83db7191f26ccf5c33e14f7f178c5906110649087815260200190565b60405180910390a350505050565b60605f80846001600160a01b03168460405161108e91906118e8565b5f604051808303815f865af19150503d805f81146110c7576040519150601f19603f3d011682016040523d82523d5f602084013e6110cc565b606091505b5091509150816110de57805160208201fd5b6001600160a01b038516610801148061110157506001600160a01b038516610802145b8061111657506001600160a01b03851661081b145b1561113c575f818060200190518101906111309190611903565b94506111409350505050565b9150505b92915050565b5f8060408385031215611157575f80fd5b50508035926020909101359150565b80356001600160a01b038116811461117c575f80fd5b919050565b5f8060408385031215611192575f80fd5b823591506111a260208401611166565b90509250929050565b5f8083601f8401126111bb575f80fd5b50813567ffffffffffffffff8111156111d2575f80fd5b6020830191508360208285010111156111e9575f80fd5b9250929050565b5f805f805f60808688031215611204575f80fd5b853567ffffffffffffffff81111561121a575f80fd5b611226888289016111ab565b909650945050602086013592506040860135915061124660608701611166565b90509295509295909350565b5f805f8060608587031215611265575f80fd5b84359350602085013567ffffffffffffffff811115611282575f80fd5b61128e878288016111ab565b9598909750949560400135949350505050565b5f805f604084860312156112b3575f80fd5b83359250602084013567ffffffffffffffff8111156112d0575f80fd5b6112dc868287016111ab565b9497909650939450505050565b5f602082840312156112f9575f80fd5b5035919050565b5f5b8381101561131a578181015183820152602001611302565b50505f910152565b5f8151808452611339816020860160208601611300565b601f01601f19169290920160200192915050565b6001600160a01b038c168152610160602082018190525f906113718382018e611322565b90508281036040840152611385818d611322565b90508a60608401528960808401528860a084015287151560c084015286151560e08401528281036101008401526113bc8187611322565b610120840195909552505061014001529998505050505050505050565b5f805f805f80608087890312156113ee575f80fd5b863567ffffffffffffffff80821115611405575f80fd5b6114118a838b016111ab565b90985096506020890135915080821115611429575f80fd5b5061143689828a016111ab565b979a9699509760408101359660609091013595509350505050565b634e487b7160e01b5f52603260045260245ffd5b8486823790930191825260601b6bffffffffffffffffffffffff191660208201526034810191909152605401919050565b634e487b7160e01b5f52604160045260245ffd5b600181811c908216806114be57607f821691505b6020821081036114dc57634e487b7160e01b5f52602260045260245ffd5b50919050565b601f82111561152957805f5260205f20601f840160051c810160208510156115075750805b601f840160051c820191505b81811015611526575f8155600101611513565b50505b505050565b67ffffffffffffffff83111561154657611546611496565b61155a8361155483546114aa565b836114e2565b5f601f84116001811461158b575f85156115745750838201355b5f19600387901b1c1916600186901b178355611526565b5f83815260208120601f198716915b828110156115ba578685013582556020948501946001909201910161159a565b50868210156115d6575f1960f88860031b161c19848701351681555b505060018560011b0183555050505050565b634e487b7160e01b5f52601160045260245ffd5b5f6001820161160d5761160d6115e8565b5060010190565b5f82601f830112611623575f80fd5b815167ffffffffffffffff8082111561163e5761163e611496565b604051601f8301601f19908116603f0116810190828211818310171561166657611666611496565b8160405283815286602085880101111561167e575f80fd5b61168f846020830160208901611300565b9695505050505050565b5f606082840312156116a9575f80fd5b6040516060810167ffffffffffffffff82821081831117156116cd576116cd611496565b8160405282935084519150808211156116e4575f80fd5b6116f086838701611614565b83526020850151915080821115611705575f80fd5b61171186838701611614565b60208401526040850151915080821115611729575f80fd5b5061173685828601611614565b6040830152505092915050565b5f805f805f60a08688031215611757575f80fd5b85518015158114611766575f80fd5b602087015190955067ffffffffffffffff80821115611783575f80fd5b61178f89838a01611614565b955060408801519150808211156117a4575f80fd5b6117b089838a01611614565b945060608801519150808211156117c5575f80fd5b6117d189838a01611614565b935060808801519150808211156117e6575f80fd5b506117f388828901611699565b9150509295509295909350565b602081525f6118126020830184611322565b9392505050565b815167ffffffffffffffff81111561183357611833611496565b6118478161184184546114aa565b846114e2565b602080601f83116001811461187a575f84156118635750858301515b5f19600386901b1c1916600185901b178555610c8d565b5f85815260208120601f198616915b828110156118a857888601518255948401946001909101908401611889565b50858210156118c557878501515f19600388901b60f8161c191681555b5050505050600190811b01905550565b81810381811115611140576111406115e8565b5f82516118f9818460208701611300565b9190910192915050565b5f8060408385031215611914575f80fd5b825167ffffffffffffffff8082111561192b575f80fd5b61193786838701611614565b9350602085015191508082111561194c575f80fd5b5061195985828601611614565b915050925092905056fea2646970667358221220ff2024676769c97c4bf5ebbde4fe1cda8c66f9cb48e03acd033c61e62ae7841b64736f6c63430008180033",
  "linkReferences": {},
  "deployedLinkReferences": {},
  "immutableReferences": {},
  "inputSourceName": "project/contracts/AIJudgeCommitReveal.sol",
  "buildInfoId": "solc-0_8_24-f1f9efa349850874bf36d22b5459d5e6cb54a549"
}