{
  "_format": "hh3-artifact-1",
  "contractName": "AIJudge",
  "sourceName": "contracts/AIJudge.sol",
  "abi": [
    {
      "anonymous": false,
      "inputs": [
        {
          "indexed": true,
          "internalType": "uint256",
          "name": "bountyId",
          "type": "uint256"
        },
        {
          "indexed": false,
          "internalType": "bytes",
          "name": "aiReview",
          "type": "bytes"
        }
      ],
      "name": "AllAnswersJudged",
      "type": "event"
    },
    {
      "anonymous": false,
      "inputs": [
        {
          "indexed": true,
          "internalType": "uint256",
          "name": "bountyId",
          "type": "uint256"
        },
        {
          "indexed": true,
          "internalType": "uint256",
          "name": "submissionIndex",
          "type": "uint256"
        },
        {
          "indexed": true,
          "internalType": "address",
          "name": "submitter",
          "type": "address"
        }
      ],
      "name": "AnswerSubmitted",
      "type": "event"
    },
    {
      "anonymous": false,
      "inputs": [
        {
          "indexed": true,
          "internalType": "uint256",
          "name": "bountyId",
          "type": "uint256"
        },
        {
          "indexed": true,
          "internalType": "address",
          "name": "owner",
          "type": "address"
        },
        {
          "indexed": false,
          "internalType": "string",
          "name": "title",
          "type": "string"
        },
        {
          "indexed": false,
          "internalType": "uint256",
          "name": "reward",
          "type": "uint256"
        },
        {
          "indexed": false,
          "internalType": "uint256",
          "name": "deadline",
          "type": "uint256"
        }
      ],
      "name": "BountyCreated",
      "type": "event"
    },
    {
      "anonymous": false,
      "inputs": [
        {
          "indexed": true,
          "internalType": "uint256",
          "name": "bountyId",
          "type": "uint256"
        },
        {
          "indexed": true,
          "internalType": "uint256",
          "name": "winnerIndex",
          "type": "uint256"
        },
        {
          "indexed": true,
          "internalType": "address",
          "name": "winner",
          "type": "address"
        },
        {
          "indexed": false,
          "internalType": "uint256",
          "name": "reward",
          "type": "uint256"
        }
      ],
      "name": "WinnerFinalized",
      "type": "event"
    },
    {
      "inputs": [],
      "name": "MAX_ANSWER_LENGTH",
      "outputs": [
        {
          "internalType": "uint256",
          "name": "",
          "type": "uint256"
        }
      ],
      "stateMutability": "view",
      "type": "function"
    },
    {
      "inputs": [],
      "name": "MAX_SUBMISSIONS",
      "outputs": [
        {
          "internalType": "uint256",
          "name": "",
          "type": "uint256"
        }
      ],
      "stateMutability": "view",
      "type": "function"
    },
    {
      "inputs": [
        {
          "internalType": "uint256",
          "name": "",
          "type": "uint256"
        }
      ],
      "name": "bounties",
      "outputs": [
        {
          "internalType": "address",
          "name": "owner",
          "type": "address"
        },
        {
          "internalType": "string",
          "name": "title",
          "type": "string"
        },
        {
          "internalType": "string",
          "name": "rubric",
          "type": "string"
        },
        {
          "internalType": "uint256",
          "name": "reward",
          "type": "uint256"
        },
        {
          "internalType": "uint256",
          "name": "deadline",
          "type": "uint256"
        },
        {
          "internalType": "bool",
          "name": "judged",
          "type": "bool"
        },
        {
          "internalType": "bool",
          "name": "finalized",
          "type": "bool"
        },
        {
          "internalType": "bytes",
          "name": "aiReview",
          "type": "bytes"
        },
        {
          "internalType": "uint256",
          "name": "winnerIndex",
          "type": "uint256"
        }
      ],
      "stateMutability": "view",
      "type": "function"
    },
    {
      "inputs": [
        {
          "internalType": "string",
          "name": "title",
          "type": "string"
        },
        {
          "internalType": "string",
          "name": "rubric",
          "type": "string"
        },
        {
          "internalType": "uint256",
          "name": "deadline",
          "type": "uint256"
        }
      ],
      "name": "createBounty",
      "outputs": [
        {
          "internalType": "uint256",
          "name": "bountyId",
          "type": "uint256"
        }
      ],
      "stateMutability": "payable",
      "type": "function"
    },
    {
      "inputs": [
        {
          "internalType": "uint256",
          "name": "bountyId",
          "type": "uint256"
        },
        {
          "internalType": "uint256",
          "name": "winnerIndex",
          "type": "uint256"
        }
      ],
      "name": "finalizeWinner",
      "outputs": [],
      "stateMutability": "nonpayable",
      "type": "function"
    },
    {
      "inputs": [
        {
          "internalType": "uint256",
          "name": "bountyId",
          "type": "uint256"
        }
      ],
      "name": "getBounty",
      "outputs": [
        {
          "internalType": "address",
          "name": "owner",
          "type": "address"
        },
        {
          "internalType": "string",
          "name": "title",
          "type": "string"
        },
        {
          "internalType": "string",
          "name": "rubric",
          "type": "string"
        },
        {
          "internalType": "uint256",
          "name": "reward",
          "type": "uint256"
        },
        {
          "internalType": "uint256",
          "name": "deadline",
          "type": "uint256"
        },
        {
          "internalType": "bool",
          "name": "judged",
          "type": "bool"
        },
        {
          "internalType": "bool",
          "name": "finalized",
          "type": "bool"
        },
        {
          "internalType": "uint256",
          "name": "submissionCount",
          "type": "uint256"
        },
        {
          "internalType": "uint256",
          "name": "winnerIndex",
          "type": "uint256"
        },
        {
          "internalType": "bytes",
          "name": "aiReview",
          "type": "bytes"
        }
      ],
      "stateMutability": "view",
      "type": "function"
    },
    {
      "inputs": [
        {
          "internalType": "uint256",
          "name": "bountyId",
          "type": "uint256"
        },
        {
          "internalType": "uint256",
          "name": "index",
          "type": "uint256"
        }
      ],
      "name": "getSubmission",
      "outputs": [
        {
          "internalType": "address",
          "name": "submitter",
          "type": "address"
        },
        {
          "internalType": "string",
          "name": "answer",
          "type": "string"
        }
      ],
      "stateMutability": "view",
      "type": "function"
    },
    {
      "inputs": [
        {
          "internalType": "uint256",
          "name": "bountyId",
          "type": "uint256"
        },
        {
          "internalType": "bytes",
          "name": "llmInput",
          "type": "bytes"
        }
      ],
      "name": "judgeAll",
      "outputs": [],
      "stateMutability": "nonpayable",
      "type": "function"
    },
    {
      "inputs": [],
      "name": "nextBountyId",
      "outputs": [
        {
          "internalType": "uint256",
          "name": "",
          "type": "uint256"
        }
      ],
      "stateMutability": "view",
      "type": "function"
    },
    {
      "inputs": [
        {
          "internalType": "uint256",
          "name": "bountyId",
          "type": "uint256"
        },
        {
          "internalType": "string",
          "name": "answer",
          "type": "string"
        }
      ],
      "name": "submitAnswer",
      "outputs": [],
      "stateMutability": "nonpayable",
      "type": "function"
    }
  ],
  "bytecode": "0x608060405260015f81905580546001600160a01b03191673532f0df0896f353d8c3dd8cc134e8129da2a3948179055348015610039575f80fd5b5061185d806100475f395ff3fe60806040526004361061008f575f3560e01c8063d8964ee911610057578063d8964ee91461013a578063dc2f874414610159578063ee8c4bbf1461018d578063fd14fad4146101c2578063fd3a8329146101d6575f80fd5b806301fa3bec146100935780632bfa7d60146100b45780635a7722f1146100da5780638e789683146100f9578063b7ed70711461010d575b5f80fd5b34801561009e575f80fd5b506100b26100ad366004611043565b6101eb565b005b6100c76100c236600461108b565b61041f565b6040519081526020015b60405180910390f35b3480156100e5575f80fd5b506100b26100f43660046110f9565b610513565b348015610104575f80fd5b506100c7600a81565b348015610118575f80fd5b5061012c6101273660046110f9565b61074b565b6040516100d1929190611166565b348015610145575f80fd5b506100b2610154366004611043565b6108a6565b348015610164575f80fd5b50610178610173366004611191565b610adb565b6040516100d1999897969594939291906111a8565b348015610198575f80fd5b506101ac6101a7366004611191565b610cc7565b6040516100d19a99989796959493929190611228565b3480156101cd575f80fd5b506100c75f5481565b3480156101e1575f80fd5b506100c76107d081565b5f8381526002602052604090205483906001600160a01b03166102295760405162461bcd60e51b8152600401610220906112af565b60405180910390fd5b5f848152600260205260409020600581015460ff161561027c5760405162461bcd60e51b815260206004820152600e60248201526d185b1c9958591e481a9d5919d95960921b6044820152606401610220565b6005810154610100900460ff16156102a65760405162461bcd60e51b8152600401610220906112d9565b6008810154600a116102f15760405162461bcd60e51b8152602060048201526014602482015273746f6f206d616e79207375626d697373696f6e7360601b6044820152606401610220565b6107d08311156103355760405162461bcd60e51b815260206004820152600f60248201526e616e7377657220746f6f206c6f6e6760881b6044820152606401610220565b806008016040518060400160405280336001600160a01b0316815260200186868080601f0160208091040260200160405190810160405280939291908181526020018383808284375f920182905250939094525050835460018082018655948252602091829020845160029092020180546001600160a01b0319166001600160a01b03909216919091178155908301519293909290830191506103d8908261139c565b505050600881015433906103ee90600190611470565b60405187907f2193ba3aacf922823442f915857f71c32e5649130b71498a48dad0ce65f97490905f90a45050505050565b5f8034116104615760405162461bcd60e51b815260206004820152600f60248201526e1c995dd85c99081c995c5d5a5c9959608a1b6044820152606401610220565b5f8054908061046f83611483565b909155505f81815260026020526040902080546001600160a01b03191633178155909150600181016104a287898361149b565b50600281016104b285878361149b565b503460038201819055600482018490555f196007830155604051339184917f4e9ff8debce04524518777fdf120513b8f7e1f434da1099fd190d1aae0d495b691610501918c918c918a90611555565b60405180910390a35095945050505050565b5f8281526002602052604090205482906001600160a01b03166105485760405162461bcd60e51b8152600401610220906112af565b5f8381526002602052604090205483906001600160a01b031633146105a25760405162461bcd60e51b815260206004820152601060248201526f3737ba103137bab73a3c9037bbb732b960811b6044820152606401610220565b5f848152600260205260409020600581015460ff166105f45760405162461bcd60e51b815260206004820152600e60248201526d1b9bdd081a9d5919d959081e595d60921b6044820152606401610220565b6005810154610100900460ff161561061e5760405162461bcd60e51b8152600401610220906112d9565b60058101805461ff001916610100179055600781018490556008810180545f91908690811061064f5761064f611593565b5f918252602082206002919091020154600384018054908390556040516001600160a01b0390921693509190839083908381818185875af1925050503d805f81146106b5576040519150601f19603f3d011682016040523d82523d5f602084013e6106ba565b606091505b50509050806106fc5760405162461bcd60e51b815260206004820152600e60248201526d1c185e5b595b9d0819985a5b195960921b6044820152606401610220565b826001600160a01b031687897f2eb0120759ae6dd1505f3f092609ec7e75433fb2401ad648ebeb5bd4bd55e5b68560405161073991815260200190565b60405180910390a45050505050505050565b5f8281526002602052604081205460609084906001600160a01b03166107835760405162461bcd60e51b8152600401610220906112af565b5f858152600260205260409020600881015485106107d35760405162461bcd60e51b815260206004820152600d60248201526c0d2dcecc2d8d2c840d2dcc8caf609b1b6044820152606401610220565b5f8160080186815481106107e9576107e9611593565b5f918252602090912060029091020180546001820180549293506001600160a01b0390911691819061081a90611318565b80601f016020809104026020016040519081016040528092919081815260200182805461084690611318565b80156108915780601f1061086857610100808354040283529160200191610891565b820191905f5260205f20905b81548152906001019060200180831161087457829003601f168201915b50505050509050945094505050509250929050565b5f8381526002602052604090205483906001600160a01b03166108db5760405162461bcd60e51b8152600401610220906112af565b5f8481526002602052604090205484906001600160a01b031633146109355760405162461bcd60e51b815260206004820152601060248201526f3737ba103137bab73a3c9037bbb732b960811b6044820152606401610220565b5f858152600260205260409020600581015460ff16156109885760405162461bcd60e51b815260206004820152600e60248201526d185b1c9958591e481a9d5919d95960921b6044820152606401610220565b6005810154610100900460ff16156109b25760405162461bcd60e51b8152600401610220906112d9565b60088101546109f45760405162461bcd60e51b815260206004820152600e60248201526d6e6f207375626d697373696f6e7360901b6044820152606401610220565b5f610a3661080287878080601f0160208091040260200160405190810160405280939291908181526020018383808284375f92019190915250610f2a92505050565b90505f805f83806020019051810190610a4f91906116d6565b509350509250925082158190610a785760405162461bcd60e51b81526004016102209190611793565b5060058501805460ff1916600117905560068501610a96838261139c565b50897fb51288ae628dca25614026175dc22a78631acc1a31f034c68c3fa241ca0fd05c83604051610ac79190611793565b60405180910390a250505050505050505050565b60026020525f9081526040902080546001820180546001600160a01b039092169291610b0690611318565b80601f0160208091040260200160405190810160405280929190818152602001828054610b3290611318565b8015610b7d5780601f10610b5457610100808354040283529160200191610b7d565b820191905f5260205f20905b815481529060010190602001808311610b6057829003601f168201915b505050505090806002018054610b9290611318565b80601f0160208091040260200160405190810160405280929190818152602001828054610bbe90611318565b8015610c095780601f10610be057610100808354040283529160200191610c09565b820191905f5260205f20905b815481529060010190602001808311610bec57829003601f168201915b505050506003830154600484015460058501546006860180549596939592945060ff808316946101009093041692610c4090611318565b80601f0160208091040260200160405190810160405280929190818152602001828054610c6c90611318565b8015610cb75780601f10610c8e57610100808354040283529160200191610cb7565b820191905f5260205f20905b815481529060010190602001808311610c9a57829003601f168201915b5050505050908060070154905089565b5f81815260026020526040812054606090819083908190819081908190819087908b906001600160a01b0316610d0f5760405162461bcd60e51b8152600401610220906112af565b5f8c815260026020819052604090912080546003820154600483015460058401546008850154600786015460018701805497986001600160a01b03909716979096890195949360ff808216946101009092041692909160068b01908990610d7590611318565b80601f0160208091040260200160405190810160405280929190818152602001828054610da190611318565b8015610dec5780601f10610dc357610100808354040283529160200191610dec565b820191905f5260205f20905b815481529060010190602001808311610dcf57829003601f168201915b50505050509850878054610dff90611318565b80601f0160208091040260200160405190810160405280929190818152602001828054610e2b90611318565b8015610e765780601f10610e4d57610100808354040283529160200191610e76565b820191905f5260205f20905b815481529060010190602001808311610e5957829003601f168201915b50505050509750808054610e8990611318565b80601f0160208091040260200160405190810160405280929190818152602001828054610eb590611318565b8015610f005780601f10610ed757610100808354040283529160200191610f00565b820191905f5260205f20905b815481529060010190602001808311610ee357829003601f168201915b505050505090509b509b509b509b509b509b509b509b509b509b5050509193959799509193959799565b60605f80846001600160a01b031684604051610f4691906117ac565b5f604051808303815f865af19150503d805f8114610f7f576040519150601f19603f3d011682016040523d82523d5f602084013e610f84565b606091505b509150915081610f9657805160208201fd5b6001600160a01b0385166108011480610fb957506001600160a01b038516610802145b80610fce57506001600160a01b03851661081b145b15610ff4575f81806020019051810190610fe891906117c7565b9450610ff89350505050565b9150505b92915050565b5f8083601f84011261100e575f80fd5b50813567ffffffffffffffff811115611025575f80fd5b60208301915083602082850101111561103c575f80fd5b9250929050565b5f805f60408486031215611055575f80fd5b83359250602084013567ffffffffffffffff811115611072575f80fd5b61107e86828701610ffe565b9497909650939450505050565b5f805f805f6060868803121561109f575f80fd5b853567ffffffffffffffff808211156110b6575f80fd5b6110c289838a01610ffe565b909750955060208801359150808211156110da575f80fd5b506110e788828901610ffe565b96999598509660400135949350505050565b5f806040838503121561110a575f80fd5b50508035926020909101359150565b5f5b8381101561113357818101518382015260200161111b565b50505f910152565b5f8151808452611152816020860160208601611119565b601f01601f19169290920160200192915050565b6001600160a01b03831681526040602082018190525f906111899083018461113b565b949350505050565b5f602082840312156111a1575f80fd5b5035919050565b6001600160a01b038a168152610120602082018190525f906111cc8382018c61113b565b905082810360408401526111e0818b61113b565b905088606084015287608084015286151560a084015285151560c084015282810360e0840152611210818661113b565b915050826101008301529a9950505050505050505050565b6001600160a01b038b168152610140602082018190525f9061124c8382018d61113b565b90508281036040840152611260818c61113b565b905089606084015288608084015287151560a084015286151560c08401528560e08401528461010084015282810361012084015261129e818561113b565b9d9c50505050505050505050505050565b60208082526010908201526f189bdd5b9d1e481b9bdd08199bdd5b9960821b604082015260600190565b602080825260119082015270185b1c9958591e48199a5b985b1a5e9959607a1b604082015260600190565b634e487b7160e01b5f52604160045260245ffd5b600181811c9082168061132c57607f821691505b60208210810361134a57634e487b7160e01b5f52602260045260245ffd5b50919050565b601f82111561139757805f5260205f20601f840160051c810160208510156113755750805b601f840160051c820191505b81811015611394575f8155600101611381565b50505b505050565b815167ffffffffffffffff8111156113b6576113b6611304565b6113ca816113c48454611318565b84611350565b602080601f8311600181146113fd575f84156113e65750858301515b5f19600386901b1c1916600185901b178555611454565b5f85815260208120601f198616915b8281101561142b5788860151825594840194600190910190840161140c565b508582101561144857878501515f19600388901b60f8161c191681555b505060018460011b0185555b505050505050565b634e487b7160e01b5f52601160045260245ffd5b81810381811115610ff857610ff861145c565b5f600182016114945761149461145c565b5060010190565b67ffffffffffffffff8311156114b3576114b3611304565b6114c7836114c18354611318565b83611350565b5f601f8411600181146114f8575f85156114e15750838201355b5f19600387901b1c1916600186901b178355611394565b5f83815260208120601f198716915b828110156115275786850135825560209485019460019092019101611507565b5086821015611543575f1960f88860031b161c19848701351681555b505060018560011b0183555050505050565b60608152836060820152838560808301375f608085830101525f6080601f19601f870116830101905083602083015282604083015295945050505050565b634e487b7160e01b5f52603260045260245ffd5b5f82601f8301126115b6575f80fd5b815167ffffffffffffffff808211156115d1576115d1611304565b604051601f8301601f19908116603f011681019082821181831017156115f9576115f9611304565b81604052838152866020858801011115611611575f80fd5b611622846020830160208901611119565b9695505050505050565b5f6060828403121561163c575f80fd5b6040516060810167ffffffffffffffff828210818311171561166057611660611304565b816040528293508451915080821115611677575f80fd5b611683868387016115a7565b83526020850151915080821115611698575f80fd5b6116a4868387016115a7565b602084015260408501519150808211156116bc575f80fd5b506116c9858286016115a7565b6040830152505092915050565b5f805f805f60a086880312156116ea575f80fd5b855180151581146116f9575f80fd5b602087015190955067ffffffffffffffff80821115611716575f80fd5b61172289838a016115a7565b95506040880151915080821115611737575f80fd5b61174389838a016115a7565b94506060880151915080821115611758575f80fd5b61176489838a016115a7565b93506080880151915080821115611779575f80fd5b506117868882890161162c565b9150509295509295909350565b602081525f6117a5602083018461113b565b9392505050565b5f82516117bd818460208701611119565b9190910192915050565b5f80604083850312156117d8575f80fd5b825167ffffffffffffffff808211156117ef575f80fd5b6117fb868387016115a7565b93506020850151915080821115611810575f80fd5b5061181d858286016115a7565b915050925092905056fea2646970667358221220e3b16332cb2e92d144e591d11aaf50bdd9fba6af93a0d4ac243f61db850163d564736f6c63430008180033",
  "linkReferences": {},
  "deployedLinkReferences": {},
  "immutableReferences": {},
  "inputSourceName": "project/contracts/AIJudge.sol",
  "buildInfoId": "solc-0_8_24-be28c7239b6839f9fb97e51a99857993f5cca779"
}